:020000021000EC
:1000000000800010C500010005010100070101008A
:10001000090101000B0101000D01010000000000B9
:100020000000000000000000000000000F010100BF
:100030001101010000000000130101001501010081
:10004000170101007987010029870100518701000C
:10005000D58601004D29010017010100292A010060
:10006000892B010017010100F17501001701010042
:10007000170101001701010017010100170101001C
:10008000170101001701010017010100170101000C
:1000900017010100170101001701010017010100FC
:1000A0001D84010017010100170101001701010063
:1000B00017010100170101001701010017010100DC
:1000C000170101000148804701480047CD020100A7
:1000D000D9FE010040F28863C1F200031A780AB920
:1000E00001201870704700BF40F2C800C1F2000044
:1000F00008B503682BB140F20003C0F2000303B15E
:10010000984708BDFEE7FEE7FEE7FEE7FEE7FEE7ED
:10011000FEE7FEE7FEE7FEE780B483B000AF78605D
:10012000396041F6B073C1F200034FF016021A6055
:100130004FF0FF33184607F10C07BD4680BC7047EF
:1001400080B483B000AF7860FEE700BF80B400AF3A
:100150004FF001031846BD4680BC704780B500AF24
:1001600040F2BD23C0F2010398470346184680BD04
:1001700090B585B000AF786040F28C63C1F20003A7
:100180001B68002B08D140F28C63C1F2000341F6DA
:10019000B872C1F200021A6040F28C63C1F200032F
:1001A0001B68FB6040F28C63C1F200031A687B6835
:1001B00002EB030440F25D13C0F2010398470346CB
:1001C0009C4204D94AF24973C0F20103984740F2B5
:1001D0008C63C1F200031A687B681A4440F28C6396
:1001E000C1F200031A60FB68184607F11407BD4608
:1001F00090BD00BF80B483B000AF78604FF0FF3394
:10020000184607F10C07BD4680BC704780B483B028
:1002100000AF786039603B684FF400525A604FF08D
:100220000003184607F10C07BD4680BC704700BFAD
:1002300080B483B000AF78604FF00103184607F137
:100240000C07BD4680BC704780B485B000AFF86035
:10025000B9607A604FF00003184607F11407BD46F5
:1002600080BC704780B485B000AFF860B9607A6038
:100270004FF00003184607F11407BD4680BC7047D5
:1002800080B487B000AFF860B9607A604FF00003C7
:100290007B6107E0BB6803F10103BB607B6903F18D
:1002A00001037B617A697B689A42F3DB7B681846BD
:1002B00007F11C07BD4680BC704700BF4FF000042B
:1002C000EFF30884204670472346184680B400AFF9
:1002D0004CF20003C4F20F034FF02002C3F8A02138
:1002E0004CF20003C4F20F03D3F8A03103F0400333
:1002F000002BF5D04CF20003C4F20F034FF00302C1
:10030000C3F804214CF20003C4F20F034FF00102C2
:10031000C3F80C214CF20003C4F20F0340F2630255
:10032000C0F20502C3F884204CF20003C4F20F03AC
:100330004FF0AA02C3F88C204CF20003C4F20F0362
:100340004FF05502C3F88C204CF20003C4F20F03A7
:100350004FF00102C3F880204CF20003C4F20F03F7
:100360004FF0AA02C3F88C204CF20003C4F20F0332
:100370004FF05502C3F88C204CF20003C4F20F0377
:10038000D3F8883003F08063002BF5D04CF20003E3
:10039000C4F20F034FF00302C3F880204CF20003B5
:1003A000C4F20F034FF0AA02C3F88C204CF20003F2
:1003B000C4F20F034FF05502C3F88C204CF2000337
:1003C000C4F20F03D3F8883003F04073002BF5D04C
:1003D0004CF20003C4F20F034FF02302C3F8A42031
:1003E0004CF20003C4F20F034FF0AA02C3F8AC2092
:1003F0004CF20003C4F20F034FF05502C3F8AC20D7
:100400004CF20003C4F20F034FF00102C3F8A02026
:100410004CF20003C4F20F034FF0AA02C3F8AC2061
:100420004CF20003C4F20F034FF05502C3F8AC20A6
:100430004CF20003C4F20F03D3F8A83003F4806336
:10044000002BF5D04CF20003C4F20F034FF003026F
:10045000C3F8A0204CF20003C4F20F034FF0AA022D
:10046000C3F8AC204CF20003C4F20F034FF0550266
:10047000C3F8AC204CF20003C4F20F03D3F8A83049
:1004800003F44073002BF5D04CF20003C4F20F03C9
:100490004FF00002C3F8A8214CF20003C4F20F038E
:1004A0004FF00002C3F8AC214CF20003C4F20F037A
:1004B00048F2DE72C0F22842C3F8C4204CF20003B6
:1004C000C4F20F034FF00002C3F8C8214CF200033E
:1004D000C4F20F0345F23A021A60BD4680BC704771
:1004E00080B485B000AF0346FB714FF00003FB60A2
:1004F000FB79042B29D801A252F823F01105010041
:100500001D05010029050100350501004105010017
:100510004CF20003C2F20903FB6016E04CF2200328
:10052000C2F20903FB6010E04CF24003C2F209037F
:10053000FB600AE04CF26003C2F20903FB6004E0D6
:100540004CF28003C2F20903FB60FB68184607F116
:100550001407BD4680BC704780B586B000AFB96057
:1005600013460246FA73FB71FB7B184640F2E143E7
:10057000C0F20103984703467B617B69002B13D0CF
:10058000FB79002B07D07B691A68BB6842EA03023B
:100590007B691A6008E07B691A68BB686FEA03032D
:1005A00002EA03027B691A6007F11807BD4680BDA5
:1005B00080B584B000AF03463960FB71FB79184603
:1005C00040F2E143C0F2010398470346FB60FB6839
:1005D000002B02D0FB683A689A6107F11007BD460C
:1005E00080BD00BF80B584B000AF03463960FB71A9
:1005F000FB79184640F2E143C0F2010398470346F5
:10060000FB60FB68002B02D0FB683A68DA6107F1F7
:100610001007BD4680BD00BF80B584B000AF034663
:10062000FB71FB79184640F2E143C0F201039847A1
:100630000346FB60FB68002B02D0FB685B6901E0AE
:100640004FF00003184607F11007BD4680BD00BFFC
:1006500080B487B000AF13460246FA710A46BA71F9
:100660007B71BB79FB60FB794FEA43033B614CF242
:100670000003C4F202037B61FB680F2B07D9FB6800
:10068000A3F11003FB603B6903F101033B613B698C
:100690004FEA83027B6913443A694FEA82017A691F
:1006A0000A441168FA684FEA42024FF0030000FA68
:1006B00002F26FEA020201EA02021A603B694FEAA3
:1006C00083027B6913443A694FEA82017A690A44DA
:1006D00011687879FA684FEA420200FA02F241EAB8
:1006E00002021A6007F11C07BD4680BC704700BFBC
:1006F00080B487B000AF13460246FA710A46BA7159
:100700007B71BB79FB60FB794FEA43033B614CF2A1
:100710004003C4F202037B61FB680F2B07D9FB681F
:10072000A3F11003FB603B6903F101033B613B69EB
:100730004FEA83027B6913443A694FEA82017A697E
:100740000A441168FA684FEA42024FF0030000FAC7
:1007500002F26FEA020201EA02021A603B694FEA02
:1007600083027B6913443A694FEA82017A690A4439
:1007700011687879FA684FEA420200FA02F241EA17
:1007800002021A6007F11C07BD4680BC704700BF1B
:1007900080B485B000AF13460246FA710A46BA71BA
:1007A0007B714CF26803C4F20203FB607B79012B7E
:1007B00013D1FB794FEA8302FB681344FA794FEABD
:1007C0008201FA680A441168BA794FF0010000FA10
:1007D00002F241EA02021A6014E0FB794FEA830256
:1007E000FB681344FA794FEA8201FA680A441168F7
:1007F000BA794FF0010000FA02F26FEA020201EA50
:1008000002021A6007F11407BD4680BC704700BFA2
:1008100080B582B000AF78607B6819787B685A78C1
:100820007B689B78084611461A4640F25163C0F235
:10083000010398477B6819787B685A787B68DB7876
:10084000084611461A4640F2F163C0F20103984788
:100850007B6819787B685A787B681B790846114653
:100860001A4640F29173C0F20103984707F1080756
:10087000BD4680BD80B584B000AF78607B68032B37
:1008800031D801A252F823F099080100AD08010007
:10089000C1080100D50801004FF0020041F6CD73F8
:1008A000C0F2010398470346FB601CE04FF00400D0
:1008B00041F6CD73C0F2010398470346FB6012E096
:1008C0004FF02C0041F6CD73C0F201039847034668
:1008D000FB6008E04FF02E0041F6CD73C0F201033B
:1008E00098470346FB60FB68184607F11007BD46B2
:1008F00080BD00BF80B584B000AF78603960786893
:1009000040F67503C0F20103984703461A464FF0BC
:100910000003C7E902233B681A464FF00003B96899
:1009200003FB01F1F86802FB00F00144B868A0FB8A
:10093000022319440B464FF2657CC0F2010C1046AD
:1009400019464FF4742202F510724FF00003E0478D
:1009500002460B46C7E90223BB68184607F1100799
:10096000BD4680BD80B485B000AF78604FF0FF33E6
:10097000FB607A6844F20003C4F200039A4203D198
:100980004FF00003FB601FE07A6848F20003C4F2F6
:1009900000039A4203D14FF00103FB6014E07A6830
:1009A00040F20003C4F209039A4203D14FF002035C
:1009B000FB6009E07A6844F20003C4F209039A423A
:1009C00002D14FF00303FB60FB68184607F11407E0
:1009D000BD4680BC704700BF80B483B000AF786074
:1009E0000B46FB707B681A68FB784FF0010101FA37
:1009F00003F342EA03027B681A6007F10C07BD4665
:100A000080BC704780B586B000AFF8600B467A6056
:100A1000FB72FA6844F20003C4F200039A4212D156
:100A20004FF002004FF0010142F24103C0F2010316
:100A300098474FF002004FF0010141F6AD63C0F25C
:100A4000010398474CE0FA6848F20003C4F200033F
:100A50009A4212D14FF004004FF0010142F24103DB
:100A6000C0F2010398474FF004004FF0010141F636
:100A7000AD63C0F20103984732E0FA6840F2000328
:100A8000C4F209039A4212D14FF480004FF00101E1
:100A900042F24103C0F2010398474FF02C004FF09F
:100AA000010141F6AD63C0F20103984718E0FA680E
:100AB00044F20003C4F209039A4211D14FF400003A
:100AC0004FF0010142F24103C0F2010398474FF099
:100AD0002E004FF0010141F6AD63C0F201039847CB
:100AE000FB684FF000029A60FB684FF000021A6149
:100AF000FB684FF00002DA60FB685B6843F00202BB
:100B0000FB685A60FB685B6823F00202FB685A606E
:100B1000FB7A002B22D17B683B613B691B78002B61
:100B200006D13B695B6803F1FF32FB68DA6027E0BE
:100B3000F86840F66513C0F20103984702463B6926
:100B40005B681046194640F6F503C0F2010398476A
:100B5000034603F1FF32FB68DA6011E07B687B61DA
:100B6000FB681B6F23F00C02FB681A677B695B78DC
:100B7000012B05D1FB681B6F43F00402FB681A6769
:100B8000FB684FF0FF321A6007F11807BD4680BDC1
:100B900080B483B000AF78600B46FB70FB78012B0C
:100BA00006D17B685B6843F001027B685A6005E010
:100BB0007B685B6823F001027B685A6007F10C07D1
:100BC000BD4680BC704700BF80B483B000AF786082
:100BD0007B685B6843F002027B685A607B685B68F5
:100BE00023F002027B685A6007F10C07BD4680BC07
:100BF000704700BF80B483B000AF786039603B6855
:100C00001B78032B1ED801A252F823F01D0C010003
:100C1000270C0100310C01003B0C01003B689A6875
:100C20007B689A610FE03B689A687B68DA610AE04A
:100C30003B689A687B681A6205E03B689A687B6843
:100C40005A6200E0FEE77B6859693B681B781A46E8
:100C500013464FEA430313444FF0070202FA03F32B
:100C60006FEA030301EA03027B685A613B685B7821
:100C7000002B10D07B6859693B681B781A461346D5
:100C80004FEA430313444FF0010202FA03F341EA2F
:100C900003027B685A613B68DB78002B12D07B68CB
:100CA00059693B681B781A4613464FEA43031344BD
:100CB00003F101034FF0010202FA03F341EA0302D8
:100CC0007B685A613B689B78002B12D07B6859691E
:100CD0003B681B781A4613464FEA4303134403F15B
:100CE00002034FF0010202FA03F341EA03027B68B8
:100CF0005A617B68DA6B3B681B784FEA430303F168
:100D000004034FF0030101FA03F36FEA030302EA5D
:100D100003027B68DA637B68DA6B3B681B7903F05C
:100D200003013B681B784FEA430303F1040301FA14
:100D300003F342EA03027B68DA6307F10C07BD465E
:100D400080BC704780B582B000AF78600B46FB7006
:100D500007F10303786819464FF001024FF00103D1
:100D600041F6214CC0F2010CE04707F10807BD46EF
:100D700080BD00BF80B584B000AF78604FF0000345
:100D8000FB7307F10F03786819464FF001024FF02B
:100D9000010341F6395CC0F2010CE047FB7B1846C9
:100DA00007F11007BD4680BD80B584B000AF786004
:100DB00039603B68FB600CE0FB681B78FA6802F165
:100DC0000102FA607868194640F64553C0F2010303
:100DD0009847FB681B78002BEED107F11007BD4642
:100DE00080BD00BF80B582B000AF786039607868A0
:100DF000396840F6A953C0F20103984778684FF666
:100E00003871C0F2010140F6A953C0F201039847BE
:100E100007F10807BD4680BD80B584B000AF78609B
:100E20000B46FB70FA784CF6CD43CCF6CC43A3FBD3
:100E300002134FEAD3010B464FEA83030B444FEAF8
:100E40004303C3EB02037B73FA784CF6CD43CCF635
:100E5000CC43A3FB02134FEAD303DAB24CF6CD43E3
:100E6000CCF6CC43A3FB02134FEAD3010B464FEA67
:100E700083030B444FEA4303C3EB0203BB73FA78CB
:100E800048F21F53C5F2EB13A3FB02134FEA5313AF
:100E9000DAB24CF6CD43CCF6CC43A3FB02134FEAB7
:100EA000D3010B464FEA83030B444FEA4303C3EBE2
:100EB0000203FB73FB7B03F13003DBB27868194656
:100EC00040F64553C0F201039847BB7B03F1300362
:100ED000DBB27868194640F64553C0F201039847E3
:100EE0007B7B03F13003DBB27868194640F645534B
:100EF000C0F20103984707F11007BD4680BD00BF4F
:100F000080B584B000AF78600B467B807A884CF661
:100F1000CD43CCF6CC43A3FB02134FEAD3010B46DF
:100F20004FEA83030B444FEA4303C3EB02039BB234
:100F3000FB727A884CF6CD43CCF6CC43A3FB02136C
:100F40004FEAD3039AB24CF6CD43CCF6CC43A3FB85
:100F500002134FEAD3010B464FEA83030B444FEAD7
:100F60004303C3EB02039BB23B737A8848F21F53DF
:100F7000C5F2EB13A3FB02134FEA53139AB24CF6DC
:100F8000CD43CCF6CC43A3FB02134FEAD3010B466F
:100F90004FEA83030B444FEA4303C3EB02039BB2C4
:100FA0007B737A8844F6D353C1F26203A3FB021326
:100FB0004FEA93139AB24CF6CD43CCF6CC43A3FB45
:100FC00002134FEAD3010B464FEA83030B444FEA67
:100FD0004303C3EB02039BB2BB737A8841F259739C
:100FE000CDF2B713A3FB02134FEA53339AB24CF678
:100FF000CD43CCF6CC43A3FB02134FEAD3010B46FF
:101000004FEA83030B444FEA4303C3EB02039BB253
:10101000FB73FB7B03F13003DBB27868194640F6C3
:101020004553C0F201039847BB7B03F13003DBB2A9
:101030007868194640F64553C0F2010398477B7B18
:1010400003F13003DBB27868194640F64553C0F22D
:10105000010398473B7B03F13003DBB27868194604
:1010600040F64553C0F201039847FB7A03F1300381
:10107000DBB27868194640F64553C0F20103984741
:1010800007F11007BD4680BD80B586B000AF78601F
:10109000396039684CF6CD43CCF6CC43A3FB012331
:1010A0004FEAD30213464FEA830313444FEA430344
:1010B000C3EB01021346BB733A684CF6CD43CCF642
:1010C000CC43A3FB02134FEAD3014CF6CD43CCF63D
:1010D000CC43A3FB01234FEAD30213464FEA830319
:1010E00013444FEA4303C3EB01021346FB733A6810
:1010F00048F21F53C5F2EB13A3FB02134FEA53113F
:101100004CF6CD43CCF6CC43A3FB01234FEAD302EC
:1011100013464FEA830313444FEA4303C3EB010230
:1011200013463B743A6844F6D353C1F26203A3FBFF
:1011300002134FEA93114CF6CD43CCF6CC43A3FBFC
:1011400001234FEAD30213464FEA830313444FEAC5
:101150004303C3EB010213467B743A6841F25973AF
:10116000CDF2B713A3FB02134FEA53314CF6CD4334
:10117000CCF6CC43A3FB01234FEAD30213464FEA3C
:10118000830313444FEA4303C3EB01021346BB74CA
:101190003B684FEA531245F6C523C0F67C23A3FBF8
:1011A00002134FEAD3114CF6CD43CCF6CC43A3FB4C
:1011B00001234FEAD30213464FEA830313444FEA55
:1011C0004303C3EB01021346FB743A684DF6836395
:1011D000C4F21B33A3FB02134FEA93414CF6CD43F9
:1011E000CCF6CC43A3FB01234FEAD30213464FEACC
:1011F000830313444FEA4303C3EB010213463B75D9
:101200003A684CF66B23C6F65F33A3FB02134FEA32
:1012100093514CF6CD43CCF6CC43A3FB01234FEACC
:10122000D30213464FEA830313444FEA4303C3EB4D
:10123000010213467B753A6843F68933C5F2E653DB
:10124000A3FB02134FEA53614CF6CD43CCF6CC43DB
:10125000A3FB01234FEAD30213464FEA830313444F
:101260004FEA4303C3EB01021346BB753A6843F6EA
:101270008933C5F2E653A3FB02134FEA53614CF6E0
:10128000CD43CCF6CC43A3FB01234FEAD302134654
:101290004FEA830313444FEA4303C3EB01021346AF
:1012A000FB75FB7D03F13003DBB27868194640F62D
:1012B0004553C0F201039847BB7D03F13003DBB215
:1012C0007868194640F64553C0F2010398477B7D84
:1012D00003F13003DBB27868194640F64553C0F29B
:1012E000010398473B7D03F13003DBB27868194670
:1012F00040F64553C0F201039847FB7C03F13003ED
:10130000DBB27868194640F64553C0F201039847AE
:10131000BB7C03F13003DBB27868194640F64553D5
:10132000C0F2010398477B7C03F13003DBB278689D
:10133000194640F64553C0F2010398473B7C03F140
:101340003003DBB27868194640F64553C0F201031A
:101350009847FB7B03F13003DBB27868194640F60F
:101360004553C0F201039847BB7B03F13003DBB266
:101370007868194640F64553C0F20103984707F1D3
:101380001807BD4680BD00BF80B584B000AF78604F
:101390000B46FB7078684FF63C71C0F2010140F6D5
:1013A000A953C0F2010398474FF00103FB73FA7889
:1013B000FB7B4FEA830342FA03F3DBB203F00F0334
:1013C000BB73BB7B092B04D9BB7B03F13703DBB2B7
:1013D00003E0BB7B03F13003DBB27868194640F6CB
:1013E0004553C0F201039847FB7B002B0CBF002341
:1013F0000123DBB2FA7B02F1FF32FA73002BD6D164
:1014000007F11007BD4680BD80B584B000AF78609D
:101410000B467B8078684FF63C71C0F2010140F6C4
:10142000A953C0F2010398474FF00303FB737A8876
:10143000FB7B4FEA830342FA03F3DBB203F00F03B3
:10144000BB73BB7B092B04D9BB7B03F13703DBB236
:1014500003E0BB7B03F13003DBB27868194640F64A
:101460004553C0F201039847FB7B002B0CBF0023C0
:101470000123DBB2FA7B02F1FF32FA73002BD6D1E3
:1014800007F11007BD4680BD80B584B000AF78601D
:10149000396078684FF63C71C0F2010140F6A953FB
:1014A000C0F2010398474FF00703FB73FB7B4FEA41
:1014B00083033A6822FA03F3DBB203F00F03BB7332
:1014C000BB7B092B04D9BB7B03F13703DBB203E001
:1014D000BB7B03F13003DBB27868194640F6455315
:1014E000C0F201039847FB7B002B0CBF00230123B4
:1014F000DBB2FA7B02F1FF32FA73002BD6D107F18F
:101500001007BD4680BD00BF80B584B000AF4FF06E
:101510000103BB704FF000033B714FF00003FB7001
:101520004FF002037B704FF000033B703B461846C0
:1015300040F61103C0F2010398474FF003037B709C
:101540003B46184640F61103C0F20103984707F1E5
:101550000803184641F68933C0F2010398474FF457
:10156000E133BB6007F108034CF20000C4F2000055
:10157000194641F6DD03C0F2010398474CF2000022
:10158000C4F200004FF0010141F61D63C0F20103F7
:10159000984741F60C33C1F2000340F6A952C0F25D
:1015A00001021A6041F61433C1F2000340F6E5521D
:1015B000C0F201021A6041F61833C1F2000340F68E
:1015C0004552C0F201021A6041F61C33C1F2000319
:1015D00041F28932C0F201021A6041F62033C1F2B1
:1015E000000341F20942C0F201021A6041F60433DD
:1015F000C1F2000341F28942C0F201021A6041F6D1
:10160000FC23C1F2000340F61962C0F201021A6025
:1016100041F60833C1F2000340F60172C0F2010244
:101620001A6041F60033C1F2000341F28902C0F2B0
:1016300001021A6041F61033C1F2000340F6755200
:10164000C0F201021A6007F11007BD4680BD00BF5D
:1016500080B58EB000AF786039604FF00003FB7248
:101660004FF000033B614FF000037B614FF000033C
:101670003B624FF001037B624FF00003BB624FF00F
:101680000003FB624FF000033B6348F2A063C0F22B
:1016900001037B637A684CF20003C4F200039A42B0
:1016A00009D14FF0060041F6CD73C0F2010398470F
:1016B0000346FB6031E07A6840F20003C4F20103A4
:1016C0009A4209D14FF0080041F6CD73C0F20103F0
:1016D00098470346FB6020E07A6848F20003C4F2B2
:1016E00009039A4209D14FF0300041F6CD73C0F2A0
:1016F000010398470346FB600FE07A684CF2000351
:10170000C4F209039A4208D14FF0320041F6CD737A
:10171000C0F2010398470346FB60FB684FEA1313CE
:10172000FB604FF00103BB615FE04FF00003FB6122
:101730004FE0BB69FA6802FB03F2B969FB690B442D
:10174000B2FBF3F37B617A693B68B2FBF3F33B6274
:101750007B693A68B3FBF2F2396801FB02F2C2EB33
:1017600003023B684FEA53039A4203D93B6A03F1F1
:1017700001033B623B6A022B27D93A6A4FF6FF739B
:101780009A4222D87A693B6AB2FBF3F33B613A6929
:101790003B689A4205D83A683B69C3EB02033B6356
:1017A00004E03A693B68C3EB02033B633A6B7B6B33
:1017B0009A420AD2BB697B62FB69BB623B6AFB62ED
:1017C0003B6B7B633B6B002B07D0FB6903F1010391
:1017D000FB61FB690F2BACD900E000BF3B6B002B1A
:1017E00007D0BB6903F10103BB61BB690F2B9CD917
:1017F00000E000BF3A6813464FEA43031A4448F238
:101800001F53C5F2EB13A3FB02134FEA53127B6B7A
:101810009A425DD97A6840F20003C4F201039A4209
:1018200029D17A687B681B7BDBB26FEA43636FEA7E
:101830005363DBB213737B68FA6A4FEA1222D2B2A7
:101840001A717B68FA6AD2B21A707A687B681B7B5D
:10185000DBB203F07F0313737B687A6A4FEA0212EC
:1018600002F0FF01BA6A02F00F0241EA020202F03E
:10187000FF029A6229E07B681B7BDBB26FEA43635D
:101880006FEA5363DAB27B681A73FB6A4FEA132379
:10189000DAB27B681A71FB6ADAB27B681A707B680D
:1018A0001B7BDBB203F07F037A6813737B6ADBB2C6
:1018B0004FEA0313DAB2BB6ADBB203F00F0342EA6A
:1018C0000303DAB27B6883F828204FF00103FB7230
:1018D000FB7A184607F13807BD4680BD80B584B055
:1018E00000AF786039607A684CF20003C4F20003FC
:1018F0009A4208D14FF008004FF0010142F2410333
:10190000C0F2010398477A6840F20003C4F2010371
:101910009A4208D14FF010004FF0010142F241030A
:10192000C0F2010398477A6848F20003C4F2090341
:101930009A4208D14FF080704FF0010142F241030A
:10194000C0F2010398477A684CF20003C4F209031D
:101950009A4208D14FF000704FF0010142F241036A
:10196000C0F2010398477A6840F20003C4F2010311
:101970009A424DD17B684FF007021A727B684FF094
:1019800000021A7203E07B681B78DBB2FB607B68A5
:101990001B7DDBB203F00103DBB2002BF3D17B68CC
:1019A0006FF07F0283F830207B681B7DDBB203F091
:1019B0002003002BF8D07B684FF0000283F8302022
:1019C0007B684FF000025A607B684FF000021A7388
:1019D0007B684FF000021A627B684FF000021A74B5
:1019E0007B684FF0000283F84C207B684FF00002C8
:1019F00083F854207B684FF0000283F850207B6806
:101A00001B7EDBB2FB607B681B7DDBB2FB6035E0DD
:101A10007B684FF007021A727B684FF000021A725F
:101A200003E07B681B78DBB2FB607B681B7DDBB26D
:101A300003F00103DBB2002BF3D17B686FF07F0270
:101A400083F830207B681B7DDBB203F02003002B82
:101A5000F8D07B684FF0000283F830207B684FF0AD
:101A600000025A607B684FF000021A737B684FF0E7
:101A700000021A627B681B7DDBB2FB607A684CF265
:101A80000003C4F209039A4204D17B684FF00002BC
:101A900083F824203B681B687868194641F251633B
:101AA000C0F2010398477A6840F20003C4F20103D0
:101AB0009A4206D17B681B7BDBB203F0C003FB605C
:101AC00005E07B681B7BDBB203F0C003FB603B6877
:101AD0005B79012B04D0022B07D0002B0FD009E03B
:101AE000FB6843F00103FB600AE0FB6843F002037C
:101AF000FB6005E0FB6843F00303FB6000E000BF10
:101B00003B681B79002B23D0FB6843F00803FB6084
:101B10003B681B7903F1FF33032B19D801A252F85C
:101B200023F000BF511B0100351B01003F1B0100CA
:101B3000491B0100FB6843F01003FB6008E0FB68F1
:101B400043F02003FB6003E0FB6843F03003FB60DD
:101B50003B689B79012B03D1FB6843F00403FB60D6
:101B60007A6840F20003C4F201039A4204D17B6810
:101B7000FA68D2B21A7303E0FB68DAB27B681A73B0
:101B800007F11007BD4680BD80B483B000AF786018
:101B90007B684FF416521A607B684FF003025A714B
:101BA0007B684FF000021A717B684FF000029A7157
:101BB00007F10C07BD4680BC704700BF80B483B0FE
:101BC00000AF78600B46FB707A6840F20003C4F205
:101BD00001039A4203D17B68FA781A7002E07B68AD
:101BE000FA781A7007F10C07BD4680BC704700BF39
:101BF00080B483B000AF78607A6840F20003C4F22A
:101C000001039A4203D17B681B78DBB202E07B6858
:101C10001B78DBB2184607F10C07BD4680BC704745
:101C200080B58AB000AFF860B9607A60FB70BB68BD
:101C30007B627B687B61FB78012B41D14FF0000315
:101C4000BB6139E04FF0FF33FB6106E0FB69002B1D
:101C50000BD0FB6903F1FF33FB61FB681B7DDBB23B
:101C600003F02003002BF1D000E000BFFB69002B44
:101C700058D04FF010033B6218E07B6A1B787A6AF9
:101C800002F101027A62F868194641F6BD33C0F2EA
:101C9000010398473B6A03F1FF333B627B6903F121
:101CA000FF337B61BB6903F10103BB613B6A002B1E
:101CB00002D07B69002BE0D17B69002BC2D134E0DC
:101CC0004FF00003BB6129E0FB681B7DDBB203F032
:101CD0002003002B28D04FF010033B6218E07B6AF2
:101CE0001B787A6A02F101027A62F868194641F6B5
:101CF000BD33C0F2010398477B6903F1FF337B6179
:101D00003B6A03F1FF333B62BB6903F10103BB6133
:101D10003B6A002B02D07B69002BE0D17B69002B52
:101D2000D2D102E000BF00E000BFBB69184607F156
:101D30002807BD4680BD00BF80B588B000AFF86001
:101D4000B9607A60FB70BB68FB617B683B61FB78C4
:101D5000012B34D14FF000037B612CE04FF0FF33B7
:101D6000BB6106E0BB69002B0BD0BB6903F1FF33FD
:101D7000BB61FB681B7DDBB203F00103002BF1D0DC
:101D800000E000BFBB69002B3ED0F86841F6F1339C
:101D9000C0F20103984703461A46FB691A70FB69B3
:101DA00003F10103FB613B6903F1FF333B617B6995
:101DB00003F101037B613B69002BCFD127E04FF09A
:101DC00000037B611CE0FB681B7DDBB203F00103B9
:101DD000002B1BD0F86841F6F133C0F2010398479D
:101DE00003461A46FB691A70FB6903F10103FB61A4
:101DF0007B6903F101037B613B6903F1FF333B61C5
:101E00003B69002BDFD102E000BF00E000BF7B692F
:101E1000184607F12007BD4680BD00BF80B483B0DF
:101E200000AF78600B46FB70FB78012B20D17A68FD
:101E300040F20003C4F201039A420CD17A687B6835
:101E400093F83030DBB26FEA43636FEA5363DBB27F
:101E500082F8303024E07B6893F83030DBB26FEAF0
:101E600043636FEA5363DAB27B6883F8302017E08C
:101E70007A6840F20003C4F201039A4208D17B68F9
:101E800093F830307B684FF0000283F8302007E091
:101E90007B6893F830307B684FF0000283F8302085
:101EA00007F10C07BD4680BC704700BF80B485B009
:101EB00000AF786039607B681F2B03D97B68A3F182
:101EC000200300E07B68FB607B681F2B27D84CF267
:101ED0000003C4F20F034CF20002C4F20F02D2F866
:101EE000A811FA684FF0030000FA02F26FEA02024A
:101EF00001EA0202C3F8A8214CF20003C4F20F0366
:101F00004CF20002C4F20F02D2F8A811FA68386845
:101F100000FA02F241EA0202C3F8A82126E04CF2DC
:101F20000003C4F20F034CF20002C4F20F02D2F815
:101F3000AC11FA684FF0030000FA02F26FEA0202F5
:101F400001EA0202C3F8AC214CF20003C4F20F0311
:101F50004CF20002C4F20F02D2F8AC11FA683868F1
:101F600000FA02F241EA0202C3F8AC2107F11407B9
:101F7000BD4680BC704700BF80B485B000AF7860BC
:101F80007B681F2B09D87B68BB604CF20003C4F24E
:101F90000F03D3F8A831FB600AE07B68A3F12003AC
:101FA000BB604CF20003C4F20F03D3F8AC31FB600A
:101FB000BB68FA6822FA03F303F00303FB60FB68D3
:101FC000184607F11407BD4680BC704780B584B041
:101FD00000AF786040F2D003C1F200031B68BB6021
:101FE000786841F67973C0F2010398470346FB60B5
:101FF000FB68032B19D801A252F823F00D20010031
:10200000152001001D200100252001004FF00403D0
:10201000FB600AE04FF00103FB6006E04FF00203B3
:10202000FB6002E04FF00803FB60BA68FB68B2FB9C
:10203000F3F3BB60BB68184607F11007BD4680BDCF
:1020400080B483B000AF78600B46FB70FB78012B47
:1020500015D14CF20002C4F20F024CF20003C4F29C
:102060000F03D3F8C41078684FF2DE73CEF6EF7327
:1020700000EA030341EA0303C2F8C43019E0FB7825
:10208000002B16D14CF20002C4F20F024CF20003F6
:10209000C4F20F03D3F8C4107B686FEA030301EAAC
:1020A00003014FF2DE73CEF6EF7301EA0303C2F8C9
:1020B000C43007F10C07BD4680BC704780B483B0C4
:1020C00000AF0346FB714EF20013CEF2000397F906
:1020D00007204FEA5212F97901F01F014FF0010079
:1020E00000FA01F143F8221007F10C07BD4680BC4D
:1020F000704700BF80B483B000AF0346FB714EF25F
:102100000013CEF2000397F907204FEA5212F97933
:1021100001F01F014FF0010000FA01F102F120026D
:1021200043F8221007F10C07BD4680BC704700BF82
:1021300080B582B000AF78607B684FF040029A6152
:102140007A684CF20003C4F201039A4209D14FF0BD
:1021500080004FF0000142F24103C0F201039847B2
:1021600020E07A684CF20003C4F205039A4209D1D8
:102170004FF400204FF0000142F24103C0F201038E
:1021800098470FE07A6840F20003C4F20A039A42CB
:1021900008D14FF080604FF0000142F24103C0F2DD
:1021A0000103984707F10807BD4680BD80B483B09E
:1021B00000AF78600B46FB70FB78012B04D17B6885
:1021C0004FF040021A6003E07B684FF040029A61D2
:1021D00007F10C07BD4680BC704700BF80B582B0D8
:1021E00000AF78600B46FB70FB78002B2CD07A6830
:1021F0004CF20003C4F201039A4207D14FF00A00E7
:1022000042F2BD03C0F2010398474BE07A684CF2FA
:102210000003C4F205039A4207D14FF00B0042F2CB
:10222000BD03C0F2010398473CE07A6840F2000326
:10223000C4F20A039A4234D14FF00C0042F2BD03BB
:10224000C0F2010398472DE07A684CF20003C4F213
:1022500001039A4207D14FF00A0042F2F503C0F29F
:10226000010398471EE07A684CF20003C4F20503AC
:102270009A4207D14FF00B0042F2F503C0F201037E
:1022800098470FE07A6840F20003C4F20A039A42CA
:1022900008D14FF00C0042F2F503C0F20103984759
:1022A00000E000BF07F10807BD4680BD80B400AF65
:1022B00000BF00BF00BF00BF00BF00BF00BF00BF26
:1022C00000BF00BF00BF00BF00BF00BF00BF00BF16
:1022D00000BF00BF00BF00BF00BF00BF00BF00BF06
:1022E00000BF00BF00BF00BF00BF00BF00BF00BFF6
:1022F00000BF00BF00BF00BF00BF00BF00BF00BFE6
:1023000000BF00BF00BF00BF00BF00BF00BF00BFD5
:1023100000BF00BF00BF00BF00BF00BF00BF00BFC5
:1023200000BF00BF00BF00BF00BF00BF00BF00BFB5
:1023300000BF00BF00BF00BF00BF00BF00BF00BFA5
:1023400000BF00BF00BF00BF00BF00BF00BF00BF95
:1023500000BF00BF00BF00BF00BF00BF00BF00BF85
:1023600000BF00BF00BF00BF00BF00BFBD4680BCB4
:10237000704700BF80B584B000AF78604FF00003B5
:10238000FB6008E042F2AD23C0F201039847FB680E
:1023900003F10103FB60FA687B689A42F2D307F10C
:1023A0001007BD4680BD00BF80B582B000AF786029
:1023B0007B684FF47A7202FB03F3184642F27533DE
:1023C000C0F20103984707F10807BD4680BD00BF72
:1023D00080B582B000AF786078684AF6E153C0F209
:1023E0000103984707F10807BD4680BD80B485B05A
:1023F00000AFF860B9607A604FF00003184607F14B
:102400001407BD4680BC704780B483B000AF03465C
:10241000FB714EF20013CEF2000397F907204FEA4A
:102420005212F97901F01F014FF0010000FA01F199
:1024300043F8221007F10C07BD4680BC704700BF6F
:1024400080B483B000AF03463960FB7197F9073061
:10245000002B10DA4EF60053CEF20003FA7902F0A8
:102460000F02A2F104013A68D2B24FEAC202D2B21C
:102470000B441A760DE04EF20013CEF2000397F9EA
:1024800007103A68D2B24FEAC202D2B20B4483F8C4
:10249000002307F10C07BD4680BC704780B582B0B1
:1024A00000AF78607A6844F20003C4F200039A42F5
:1024B0000BD144F20000C4F200004FF0010140F6DD
:1024C0009133C0F20103984737E07A6848F200037D
:1024D000C4F200039A420BD148F20000C4F200009B
:1024E0004FF0010140F69133C0F20103984724E018
:1024F0007A6840F20003C4F209039A420BD140F219
:102500000000C4F209004FF0010140F69133C0F21F
:102510000103984711E07A6844F20003C4F209030A
:102520009A420AD144F20000C4F209004FF00101BE
:1025300040F69133C0F20103984707F10807BD4602
:1025400080BD00BF80B582B000AF78607A6844F289
:102550000003C4F200039A4209D144F20000C4F21D
:10256000000040F6C933C0F20103984731E07A68B1
:1025700048F20003C4F200039A4209D148F2000075
:10258000C4F2000040F6C933C0F20103984720E0CE
:102590007A6840F20003C4F209039A4209D140F27A
:1025A0000000C4F2090040F6C933C0F201039847A5
:1025B0000FE07A6844F20003C4F209039A4208D19A
:1025C00044F20000C4F2090040F6C933C0F201032E
:1025D000984707F10807BD4680BD00BF80B582B0AF
:1025E00000AF786041F62433C1F200034FF00102DE
:1025F0001A7041F62433C1F200034FF001025A6011
:1026000041F62C33C1F200034FF000021A7041F67C
:102610002C33C1F200034FF001025A7041F62C3303
:10262000C1F200034FF00102DA7041F62C33C1F21F
:1026300000034FF000029A7041F62C33C1F2000300
:102640004FF000021A7141F62C33C1F200037A6890
:102650009A6044F20000C4F200004FF0000141F61D
:102660002432C1F2000240F60523C0F2010398476C
:1026700044F20000C4F2000041F62C31C1F2000126
:1026800040F6F533C0F2010398474FF001004FF0D8
:10269000020142F24143C0F2010398474FF00100AA
:1026A00042F20943C0F2010398474FF00003184675
:1026B00007F10807BD4680BD80B582B000AF7860E5
:1026C00041F62433C1F200034FF001021A7041F6C3
:1026D0002433C1F200034FF001025A6041F62C335B
:1026E000C1F200034FF000021A7041F62C33C1F220
:1026F00000034FF001025A7041F62C33C1F200037F
:102700004FF00102DA7041F62C33C1F200034FF0B2
:1027100000029A7041F62C33C1F200034FF0000220
:102720001A7141F62C33C1F200037A689A6048F2BC
:102730000000C4F200004FF0000141F62432C1F263
:10274000000240F60523C0F20103984748F200005A
:10275000C4F2000041F62C31C1F2000140F6F5331D
:10276000C0F2010398474FF002004FF0040142F21B
:102770004143C0F2010398474FF0020042F209437F
:10278000C0F2010398474FF00003184607F108070D
:10279000BD4680BD80B582B000AF786041F624337D
:1027A000C1F200034FF001021A7041F62433C1F266
:1027B00000034FF001025A6041F62C33C1F20003CE
:1027C0004FF000021A7041F62C33C1F200034FF0B3
:1027D00001025A7041F62C33C1F200034FF001029E
:1027E000DA7041F62C33C1F200034FF001029A7007
:1027F00041F62C33C1F200034FF000021A7141F68A
:102800002C33C1F200037A689A6040F20000C4F2EF
:1028100009004FF0000141F62432C1F2000240F6F7
:102820000523C0F20103984740F20000C4F20900FA
:1028300041F62C31C1F2000140F6F533C0F201033C
:1028400098474FF003004FF0050142F24143C0F2B8
:10285000010398474FF0030042F20943C0F201031D
:1028600098474FF00003184607F10807BD4680BDA2
:1028700080B582B000AF786041F62433C1F2000326
:102880004FF001021A7041F62433C1F200034FF0F9
:1028900001025A6041F62C33C1F200034FF00002EE
:1028A0001A7041F62C33C1F200034FF001025A7046
:1028B00041F62C33C1F200034FF00102DA7041F609
:1028C0002C33C1F200034FF000029A7041F62C3312
:1028D000C1F200034FF000021A7141F62C33C1F22D
:1028E00000037A689A6044F20000C4F209004FF0D5
:1028F000000141F62432C1F2000240F60523C0F285
:102900000103984744F20000C4F2090041F62C315B
:10291000C1F2000140F6F533C0F2010398474FF0D1
:1029200004004FF0060142F24143C0F20103984710
:102930004FF0040042F20943C0F2010398474FF000
:102940000003184607F10807BD4680BD80B582B078
:1029500000AF4CF20003C4F200039B683B713B796B
:102960004FEA53033B713B7903F007033B713B791B
:10297000032B2FD14CF20003C4F200031B7D7B71AB
:102980007B7903F09E03002B0CD07A7941F6244327
:10299000C1F200031A604CF20003C4F200031B787A
:1029A000BB713DE07B7903F00103DBB2002B36D035
:1029B0004CF20003C4F200031B78FB71FB7941F673
:1029C0006430C1F20000194644F2A123C0F20103B1
:1029D000984725E03B79022B11D14CF20003C4F259
:1029E00000031B78FB71FB7941F66430C1F20000F3
:1029F000194644F2A123C0F20103984710E03B7945
:102A0000062B0DD141F62443C1F200031B6843F4A9
:102A1000807241F62443C1F200031A6000E000BF57
:102A200007F10807BD4680BD80B582B000AF48F20F
:102A30000003C4F209039B683B703B784FEA5303E1
:102A40003B703B7803F007033B703B78032B2FD19F
:102A500048F20003C4F209031B7D7B707B7803F00E
:102A60009E03002B0CD07A7841F64433C1F2000368
:102A70001A6048F20003C4F209031B78BB707EE0C1
:102A80007B7803F00103DBB2002B77D048F2000320
:102A9000C4F209031B78FB70FB7841F67030C1F279
:102AA0000000194648F26163C0F20103984766E0EE
:102AB0003B78022B11D148F20003C4F209031B78C2
:102AC000FB70FB7841F67030C1F20000194648F205
:102AD0006163C0F20103984751E03B78062B0CD1AB
:102AE00041F64433C1F200031B6843F4807241F69F
:102AF0004433C1F200031A6041E03B78012B3ED120
:102B00004FF000037B6041F63830C1F2000044F220
:102B10007523C0F2010398470346002B1ED040F2F4
:102B20009063C1F200034FF000029A6016E041F694
:102B30003830C1F2000044F20133C0F2010398477B
:102B400048F20003C4F2090341F63832C1F2000230
:102B5000927A1A707B6803F101037B607B680F2B0C
:102B60000DDC41F63830C1F2000044F27523C0F2AA
:102B7000010398470346002BD9D000E000BF07F1BE
:102B80000807BD4680BD00BF80B582B000AF4CF2E3
:102B90000003C4F209039B683B703B784FEA530380
:102BA0003B703B7803F007033B703B78032B2FD13E
:102BB0004CF20003C4F209031B7D7B707B7803F0A9
:102BC0009E03002B0CD07A7841F64833C1F2000303
:102BD0001A604CF20003C4F209031B78BB706BE06F
:102BE0007B7803F00103DBB2002B64D04CF20003CE
:102BF000C4F209031B78FB70FB7841F65830C1F230
:102C00000000194644F2A123C0F20103984753E0A3
:102C10003B78022B11D14CF20003C4F209031B785C
:102C2000FB70FB7841F65830C1F20000194644F2BF
:102C3000A123C0F2010398473EE03B78062B0CD15C
:102C400041F64833C1F200031B6843F4807241F639
:102C50004833C1F200031A602EE03B78012B2BD1E0
:102C60004FF000037B6016E041F64C30C1F20000EB
:102C700044F20133C0F2010398474CF20003C4F25E
:102C8000090341F64C32C1F20002927A1A707B6855
:102C900003F101037B607B680F2B0DDC41F64C30A8
:102CA000C1F2000044F27523C0F2010398470346C5
:102CB000002BD9D000E000BF07F10807BD4680BD5A
:102CC00080B582B000AF0346FB7141F63830C1F2E7
:102CD000000044F22923C0F2010398470346002B69
:102CE0000DD1FB7941F63830C1F20000194644F2AB
:102CF000A123C0F2010398474FF001030CE0FB79D8
:102D00004FF64070C0F20100194645F60513C0F2B7
:102D1000010398474FF00003184607F10807BD4626
:102D200080BD00BF80B500AF41F63830C1F2000071
:102D300044F27523C0F2010398470346002B15D1D6
:102D400041F63830C1F2000044F20133C0F2010311
:102D5000984748F20003C4F2090341F63832C1F241
:102D60000002927A1A704FF0010301E04FF0000365
:102D7000184680BD80B584B000AF786039604FF0F0
:102D80000003FB6010E0FA687B6813441B78184668
:102D900042F6C143C0F2010398470346002B08D016
:102DA000FB6803F10103FB60FA683B689A42EADBC7
:102DB00000E000BF42F62553C0F2010398474FF0F0
:102DC0000103184607F11007BD4680BD80B500AF6E
:102DD00041F62840C1F2000044F20133C0F2010381
:102DE00098470346002B02D04FF0FF0304E041F662
:102DF0002843C1F200039B7A184680BD80B500AF1E
:102E000041F62840C1F2000044F27523C0F20103EC
:102E100098470346184680BD80B400AF48F20003CF
:102E2000C4F209034FF001021A724FF00103184671
:102E3000BD4680BC704700BF80B483B000AF7860EF
:102E40004CF20003C5F20003D3F800227B6802EACB
:102E500003027B689A42F3D14CF20003C5F20003EF
:102E60007A68C3F8082207F10C07BD4680BC70479A
:102E700080B582B000AF0346FB714CF20003C5F28F
:102E800000034FF03002C3F808224CF20003C5F2F1
:102E90000003FA794FEA024242F4A062C3F810221A
:102EA0004FF0100042F63963C0F20103984707F172
:102EB0000807BD4680BD00BF80B582B000AF0246A6
:102EC0000B46FA71BB80FB79184642F67163C0F27B
:102ED000010398474CF20003C5F20003BA884FEA99
:102EE000024242F48072C3F810224FF0100042F602
:102EF0003963C0F20103984707F10807BD4680BD5A
:102F000080B582B000AF0346FB71FB79184642F6EC
:102F10007163C0F2010398474CF20003C5F200034D
:102F2000FA794FEA024242F40072C3F810224FF0DD
:102F3000200042F63963C0F2010398474CF20003C7
:102F4000C5F20003D3F81432DBB2184607F10807C4
:102F5000BD4680BD80B582B000AF78600B467B80F7
:102F60004CF20003C5F200034CF20002C5F200026D
:102F7000D2F844124FF001007A6800FA02F241EAF6
:102F80000202C3F844224CF20003C5F200037A683F
:102F9000C3F848224CF20003C5F200037A88C3F854
:102FA0004C224FF4807042F63963C0F20103984717
:102FB00007F10807BD4680BD80B582B000AF7860DC
:102FC00039607B68DBB243F04003DBB2DAB23B68C6
:102FD000002B02D04FF0000301E04FF02003104619
:102FE000194642F6B963C0F20103984707F1080792
:102FF000BD4680BD80B584B000AF02460B46FA7175
:10300000BB80FB7903F00F034FEA4302FB794FEAE1
:10301000D313DBB242EA0303FB60BB88F8681946AE
:1030200042F65573C0F201039847F8684FF001016A
:1030300042F6B973C0F20103984707F11007BD4685
:1030400080BD00BF80B485B000AF03463960FB711E
:10305000FB7903F00F034FEA4302FB794FEAD313E6
:10306000DBB242EA0303FB60FB684FEAD37213440E
:103070004FEA63031A4640F2A463C1F200033968C1
:1030800043F822104CF20003C5F200034CF2000298
:10309000C5F20002D2F834124FF00100FA6800FACB
:1030A00002F241EA0202C3F834224CF20003C5F2F4
:1030B00000034CF20002C5F20002D2F8042242F0F2
:1030C0000402C3F8042207F11407BD4680BC704710
:1030D00080B483B000AF786040F2A063C1F2000317
:1030E0007A681A604CF20003C5F200034CF2000249
:1030F000C5F20002D2F8042242F00802C3F804220A
:1031000007F10C07BD4680BC704700BF80B483B098
:1031100000AF786040F2E463C1F200037A681A609D
:103120004CF20003C5F200034CF20002C5F20002AB
:10313000D2F8042242F00102C3F8042207F10C077E
:10314000BD4680BC704700BF80B582B000AF03466B
:10315000FB71FB796FEA43636FEA5363DBB24FF0B5
:10316000D000194642F6B963C0F20103984707F14F
:103170000807BD4680BD00BF80B582B000AF786053
:103180007B68002B0CBF002301234FF0FE00194683
:1031900042F6B963C0F20103984707F10807BD463C
:1031A00080BD00BF80B582B000AF0346FB71FB79E4
:1031B0004FF0F300194642F6B963C0F20103984795
:1031C00007F10807BD4680BD80B584B000AF034657
:1031D000FB71FB7903F00F034FEA4302FB794FEADF
:1031E000D313DBB242EA0303FB60FB68DBB2184691
:1031F00042F60173C0F2010398470346184607F1EF
:103200001007BD4680BD00BF80B584B000AF034647
:103210003960FB71FB7903F00F034FEA4302FB793E
:103220004FEAD313DBB242EA0303FB60FB68DBB275
:1032300043F04003DBB2DAB23B68002B0CBF002343
:1032400001231046194642F6B963C0F201039847BC
:1032500007F11007BD4680BD80B586B000AF0346BC
:10326000B9607A60FB73FB7B03F00F034FEA430204
:10327000FB7B4FEAD313DBB242EA03037B614CF2E0
:103280000003C5F20003FA7B02F00F024FEA82024C
:1032900042F00202C3F828224CF20003C5F20003F8
:1032A0007A68C3F8242223E04CF20003C5F200033D
:1032B000BA6802F1030212784FEA0261BA6802F1B9
:1032C000020212784FEA024241EA0201BA6802F1B0
:1032D000010212784FEA022241EA0201BA6812782A
:1032E00041EA0202C3F81C22BB6803F10403BB607D
:1032F0004CF20003C5F20003D3F8283203F00203B6
:10330000002BD1D17B69DBB2184642F67163C0F263
:10331000010398474FF0FA0042F67163C0F20103CF
:1033200098477B68184607F11807BD4680BD00BF67
:1033300080B588B000AF0346B9607A60FB73FB7B51
:1033400003F00F034FEA4302FB7B4FEAD313DBB2D8
:1033500042EA03037B614CF20003C5F20003FA7BEF
:1033600002F00F024FEA820242F00102C3F8282263
:103370004CF20003C5F20003D3F82032FB61FB6975
:1033800003F40063002BF3D0FB6903F48063002B8C
:1033900002D14FF0FF3349E0FB694FEA83534FEA14
:1033A0009353FB614FF00003BB614FF000033B619F
:1033B00020E03B6903F00303002B06D14CF200032D
:1033C000C5F20003D3F81832BB61BB68002B09D0EB
:1033D0003A697B689A4205DA3A69BB681344BA696C
:1033E000D2B21A70BB694FEA1323BB613B6903F188
:1033F00001033B61FA693B699A42DADC4CF2000353
:10340000C5F200034FF00002C3F828227B69DBB24B
:10341000184642F67163C0F2010398474FF0F2007C
:1034200042F67163C0F201039847FB69184607F141
:103430002007BD4680BD00BF80B582B000AF786078
:103440007B68002B0CBF002301234FF0D8001946E6
:1034500042F6B963C0F20103984707F10807BD4679
:1034600080BD00BF80B586B000AF4CF20003C5F24E
:103470000003D3F800327B607B6803F00103DBB20A
:10348000002B1FD04CF20003C5F200034FF00102E5
:10349000C3F8082240F2E463C1F200031B68002B6A
:1034A00010D04FF0F50042F60173C0F201039847C7
:1034B0000346FB8240F2E463C1F200031B68FA8A10
:1034C000104698477B6803F00803002B28D04CF285
:1034D0000003C5F200034FF00802C3F808224FF0C2
:1034E000FE0042F60173C0F2010398470346BB7326
:1034F000BB7B03F01A03002B12D0BB7B03F0150338
:10350000FB7340F2A063C1F200031B68002B07D0DD
:1035100040F2A063C1F200031B68FA7B1046984793
:103520007B6803F00403002B6BD04CF20003C5F260
:1035300000034FF00402C3F808224FF000033B6180
:103540005CE04FF001023B6902FA03F3BB604CF20E
:103550000003C5F20003D3F83022BB6802EA03037C
:10356000002B47D04CF20003C5F20003BA68C3F841
:1035700038224FF0200042F63963C0F20103984729
:103580004CF20003C5F20003D3F814327B737B7B4B
:1035900003F01F03FB733B694FEAD37213444FEAF6
:1035A00063031A4640F2A463C1F2000353F82230C9
:1035B000002B1FD03B694FEAD37213444FEA6303D9
:1035C0001A4640F2A463C1F2000353F822203B697B
:1035D0004FEAC313D9B23B694FEA6303DBB2DBB2F4
:1035E00003F00F0341EA0303DBB2D9B2FB7B0846C9
:1035F000194690473B6903F101033B613B691F2B6F
:103600009FDD07F11807BD4680BD00BF80B500AF44
:103610004CF20003C4F202034CF20002C4F20202B4
:10362000126922F440221A614CF20003C4F2020330
:103630004CF20002C4F20202126942F480221A61C2
:103640004CF20003C4F202034CF20002C4F2020284
:10365000526822F070525A604CF20003C4F2020326
:103660004CF20002C4F20202526842F0A0525A60C8
:103670004CF20003C4F20F034CF20002C4F20F023A
:10368000D2F8C42042F00042C3F8C4204CF2000338
:10369000C5F200034FF01A02C3F8F42F4CF20003F6
:1036A000C5F20003D3F8F83F03F01A031A2BF5D143
:1036B0004CF20003C5F200034FF00002C3F80422ED
:1036C0004CF20003C5F200034FF0FF32C3F80822AA
:1036D0004CF20003C5F200034FF00002C3F82C22A5
:1036E0004CF20003C5F200034FF00002C3F834228D
:1036F0004CF20003C5F200034FF0FF32C3F838224A
:103700004CF20003C5F200034FF00002C3F8402260
:103710004FF0000043F2A513C0F2010398474FF0A9
:103720000103184680BD00BF80B483B000AF78604D
:1037300039607B684FF000021A607B684FF000022E
:103740005A607B683A689A6007F10C07BD4680BCF6
:10375000704700BF80B485B000AF78600B46FB7047
:103760007B681B6803F101034FEAE3724FEAD25210
:1037700013444FEAC3534FEAD353C2EB0303FB6036
:103780007B685A68FB689A4202D14FF000030BE055
:103790007B689A687B681B681344FA781A707B68A8
:1037A000FA681A604FF00103184607F11407BD4686
:1037B00080BC704780B485B000AF786039607B68AA
:1037C0001A687B685B689A4202D14FF000031CE0E4
:1037D0007B685B6803F101034FEAE3724FEAD25260
:1037E00013444FEAC3534FEAD353C2EB0303FB60C6
:1037F0007B689A687B685B6813441A783B681A7028
:103800007B68FA685A604FF00103184607F1140705
:10381000BD4680BC704700BF80B483B000AF786005
:103820007B681B6803F500727B685B68C3EB02036F
:103830004FEAE3724FEAD25213444FEAC3534FEABE
:10384000D353C2EB0303184607F10C07BD4680BCF7
:10385000704700BF80B582B000AF7860786843F6EB
:103860001903C0F2010398470346C3F5FE7303F141
:103870000303184607F10807BD4680BD80B483B036
:1038800000AF0346FB7107F10C07BD4680BC7047D3
:1038900080B500AF43F20D63C0F20103984743F6D1
:1038A0007D00C0F2010043F2D103C0F2010398474A
:1038B0004FF0000043F62D21C0F2010143F2450311
:1038C000C0F2010398474FF0800043F62D21C0F26B
:1038D000010143F24503C0F2010398474FF0000095
:1038E0004FF0400142F6F573C0F2010398474FF0E4
:1038F00080004FF0400142F6F573C0F20103984793
:103900004FF0000044F22511C0F2010140F2E862DC
:10391000C1F2000243F68D43C0F2010398474FF015
:103920000103184680BD00BF80B586B000AFF860C7
:10393000B9607A60FB681B784FEA5313DBB203F07F
:1039400003037B617A6940F20473C1F2000353F808
:1039500022303B613B69002B02D14FF0000305E0B0
:103960003B69F868B9687A6898470346184607F1D2
:103970001807BD4680BD00BF80B584B000AF0346C8
:10398000FB714FF080004FF0010143F20923C0F2B8
:103990000103984740F2F063C1F20003BB604FF0AF
:1039A0000003FB6003E0FB6803F10103FB60FB68BD
:1039B000072BF8DD07F11007BD4680BD80B582B04A
:1039C00000AF40F2FC63C1F200031B68402BA8BFAC
:1039D00040237B6040F2F863C1F200031B684FF0A4
:1039E000800019467A6843F25923C0F201039847D0
:1039F00040F2F863C1F200031A687B681A4440F28F
:103A0000F863C1F200031A6040F2FC63C1F20003E4
:103A10001A687B68C3EB020240F2FC63C1F2000348
:103A20001A6007F10807BD4680BD00BF80B584B0AD
:103A300000AF02460B46FA71BB71FB79002B40F0D8
:103A40001581BB7903F00403002B00F081804FF057
:103A5000000040F2F061C1F200014FF0080243F2B1
:103A60003133C0F20103984740F2F063C1F2000322
:103A70001B784FEA5313DBB203F00303FB60FA68D1
:103A800040F21473C1F2000353F8222040F2F863AD
:103A9000C1F200031A6040F2F063C1F20003DB8858
:103AA0001A4640F2FC63C1F200031A6040F2F06370
:103AB000C1F20003DB881A4640F20073C1F2000332
:103AC0001A6040F2F063C1F20003DB88002B0AD0D9
:103AD00040F2F063C1F200031B784FEAD313DBB26C
:103AE000012B40F0CC8040F2F060C1F2000040F2C7
:103AF0000071C1F2000140F2F862C1F2000243F627
:103B00002913C0F2010398470346002B07D1BB7964
:103B1000184643F67913C0F201039847B2E040F229
:103B2000F063C1F20003DB881A4640F20073C1F271
:103B300000031B689A42A8BF1A4640F2FC63C1F218
:103B400000031A6043F6BD13C0F20103984799E0E1
:103B500040F2FC63C1F200031B68002B78DD40F2E9
:103B6000F863C1F200031A6840F2FC63C1F200037B
:103B70001B684FF0000011461A4643F23133C0F281
:103B8000010398470346BB60BB68002B07DABB798B
:103B9000184643F67913C0F20103984772E040F2E9
:103BA000F863C1F200031A68BB681A4440F2F86374
:103BB000C1F200031A6040F2FC63C1F200031A680C
:103BC000BB68C3EB020240F2FC63C1F200031A605F
:103BD00040F2FC63C1F200031B68002B51D140F29C
:103BE000F063C1F200031B784FEA5313DBB203F01A
:103BF0000303FB60FA6840F21473C1F2000353F848
:103C0000222040F2F863C1F200031A6040F2F06033
:103C1000C1F2000040F20071C1F2000140F2F8620E
:103C2000C1F2000243F62913C0F20103984703468C
:103C3000002B07D1BB79184643F67913C0F2010374
:103C400098471FE043F6BD13C0F20103984719E0FF
:103C50004FF000004FF000014FF0000243F231330B
:103C6000C0F2010398470346BB600BE0FB79802B51
:103C700008D143F6BD13C0F20103984702E000BF2C
:103C800000E000BF07F11007BD4680BD80B485B0DD
:103C900000AFF860B9607A60FA6840F20473C1F26C
:103CA0000003B96843F82210FA6840F21473C1F2B5
:103CB0000003796843F8221007F11407BD4680BC61
:103CC000704700BF80B483B000AF786040F22C73BF
:103CD000C1F200037A681A6007F10C07BD4680BC88
:103CE000704700BF80B489B000AFBA607B60034604
:103CF000FB810B46BB81FB894FEA13239BB2BB754B
:103D0000FB89FB7540F22C73C1F200031B68BB6199
:103D10004FF00003FB6131E0BB6903F101031B7845
:103D2000BA7D9A4225D1FA7DFB699A421DD17B6802
:103D3000BA691A60BB7D022B0FD1BB6903F1020384
:103D40001B781A46BB6903F103031B784FEA032370
:103D500042EA0302BB681A6004E0BB691B781A469A
:103D6000BB681A604FF001030EE0FB6903F1010329
:103D7000FB61BB691B78BA691344BB61BB691B78E3
:103D8000002BC9D14FF00003184607F12407BD46A8
:103D900080BC704780B586B000AF02460B46FA7112
:103DA000BB71FB79002B07D14FF0000043F2394380
:103DB000C0F20103984758E040F22C73C1F20003AF
:103DC0001B68FB604FF0FF33FB744FF0FF333B7514
:103DD00040E0FB6803F101031B78042B09D0052B9D
:103DE0000DD0022B31D1FB6803F105031B78FB7466
:103DF0002BE0FB6803F103031B783B7525E0FA7C9D
:103E0000FB799A4221D13A7DBB799A421DD1FB6858
:103E100003F102031B787B75FB6803F104031B7835
:103E20001A46FB6803F105031B784FEA03239BB294
:103E300042EA03039BB2FB827A7DFB8A1046194655
:103E400042F6F573C0F201039847FB681B78FA68E5
:103E50001344FB60FB681B78002BBAD14FF00100C4
:103E600043F23943C0F2010398474FF0010318466B
:103E700007F11807BD4680BD80B586B000AFF86079
:103E8000B9607A607B681B687B61FB685B78092B93
:103E90006AD801A252F823F0C13E01005D3F010043
:103EA000693F01005D3F0100693F0100DF3E010005
:103EB000F33E0100633F0100113F0100293F010073
:103EC0007B694FF000021A707B6903F101034FF028
:103ED00000021A70BB684FF002021A6047E0FB68EC
:103EE0005B88DBB2184643F24913C0F201039847DE
:103EF0003DE0FB685A88FB689B8810461946BA6803
:103F00007B6843F6E54CC0F2010CE047034630E025
:103F100040F22473C1F200031A787B691A70BB68FF
:103F20004FF001021A6022E0FB685B88DBB21846A2
:103F30004FF0000143F69553C0F201039847034642
:103F4000002B02D14FF0000313E0FB685B88DAB26C
:103F500040F22473C1F200031A7008E04FF000032E
:103F600007E04FF0000304E04FF0000301E04FF0E2
:103F70000103184607F11807BD4680BD80B487B01D
:103F800000AFF860B9607A607B681B687B61FB6892
:103F90005B780B2B41D801A252F823F0CD3F0100F2
:103FA000EB3F01001B400100EB3F01001B40010003
:103FB0001B4001001B4001001B4001001B40010091
:103FC0001B400100F13F0100034001007B694FF0FD
:103FD00000021A707B6903F101034FF000021A70AE
:103FE000BB684FF002021A601AE04FF0000319E0BC
:103FF0007B694FF000021A70BB684FF001021A6033
:104000000EE0FB685B88002B02D04FF0000309E054
:10401000BB684FF000021A6002E04FF0000301E0BD
:104020004FF00103184607F11C07BD4680BC7047DE
:1040300080B586B000AFF860B9607A607B681B68B5
:104040007B61FB685B780C2B62D801A252F823F0ED
:1040500085400100BF40010011410100E540010021
:104060001141010011410100114101001141010004
:1040700011410100114101001141010011410100F4
:104080000B410100FB689B88DBB2184643F2C91361
:10409000C0F201039847034603F00203002B0CBF54
:1040A000002201227B691A707B6903F101034FF042
:1040B00000021A70BB684FF002021A602BE0FB6826
:1040C0005B88002B0BD1FB689B88DBB218464FF056
:1040D000000143F20923C0F2010398471BE04FF0AF
:1040E00000031AE0FB685B88002B0BD1FB689B8800
:1040F000DBB218464FF0010143F20923C0F201037D
:10410000984708E04FF0000307E04FF0000304E099
:104110004FF0000301E04FF00103184607F11807C4
:10412000BD4680BD80B584B000AFF860B9607A60EC
:1041300040F22873C1F200031B68002B0ED040F23E
:104140002873C1F200031B68F868B9687A68984759
:104150000346002B02D04FF0010329E0FB681B78D7
:1041600003F01F03012B0DD0022B15D0002B1DD106
:10417000F868B9687A6843F67963C0F20103984732
:10418000034615E0F868B9687A6843F67D73C0F2B3
:104190000103984703460BE0F868B9687A6844F26F
:1041A0003103C0F201039847034601E04FF00003DA
:1041B000184607F11007BD4680BD00BF80B400AFB0
:1041C00040F2D003C1F200031A6844F6D353C1F29F
:1041D0006203A3FB02134FEA93131A4640F23073B3
:1041E000C1F200031A60BD4680BC704780B485B040
:1041F00000AFF860B9601346FB80FB68BA681A60CC
:10420000FB68FA889A80FB684FF000021A81FB680D
:104210001A89FB68DA804FF00003184607F114078B
:10422000BD4680BC704700BF80B483B000AF7860EB
:104230007B681B891A467B68DB8803F1FF339A424F
:104240000CD07B681B891A467B689B8803F1FF337F
:104250009A4206D17B68DB88002B02D14FF0010324
:1042600001E04FF00003184607F10C07BD4680BC83
:10427000704700BF80B483B000AF78607B68DA8895
:104280007B681B899A4202D14FF0010301E04FF095
:104290000003184607F10C07BD4680BC704700BFFD
:1042A00080B582B000AF78600B46FB70786844F24E
:1042B0002923C0F2010398470346002B02D04FF098
:1042C000010318E07B6819687B681B891A460A4459
:1042D000F978117003F101039AB27B681A817B6847
:1042E0001A897B689B889A4203D17B684FF0000251
:1042F0001A814FF00003184607F10807BD4680BD3C
:1043000080B582B000AF7860786844F27523C0F25F
:10431000010398470346002B02D04FF0010327E02A
:104320007B6819687B68DB881A460A4411787A68CA
:10433000917203F101039AB27B68DA807B68DA88B4
:104340007B689B889A4203D17B684FF00002DA8039
:104350007B68DA887B681B899A4207D17B684FF0BB
:1043600000021A817B681A897B68DA804FF00003AB
:10437000184607F10807BD4680BD00BF80B483B072
:1043800000AF78607B684FF000021A817B681A8961
:104390007B68DA8007F10C07BD4680BC704700BF20
:1043A00080B485B000AF786039607B68FB6003E063
:1043B000FB6803F10103FB60FB681B78002B0BD04B
:1043C0003B68002B0CBF00230123DBB23A6802F1EB
:1043D000FF323A60002BEBD1FA687B68C3EB020333
:1043E000184607F11407BD4680BC704780B485B0FD
:1043F00000AF78604FF00003FB6012E0FA681346EC
:104400004FEA830313444FEA430319467B681B6852
:104410001A780A44A2F13002FA6003F101027B68C3
:104420001A607B681B681B782F2B04D97B681B687C
:104430001B78392BE2D9FB68184607F11407BD46F3
:1044400080BC704780B499B000AFF860B9607A6002
:104450003B6040F2D403C1F200031B68BB65FB6EF6
:1044600003F04003002B05D040F2D803C1F2000353
:104470001B68BB65FB6E03F01003002B03D0FB6EC3
:1044800023F00103FB667B68012B02DD7B68242B94
:1044900002DD4FF0000341E1FB6E03F00103DBB2EC
:1044A000002B02D04FF0300301E04FF0200387F8DB
:1044B00056304FF0000387F85730FB6E03F00203CD
:1044C000002B2AD0BB68002B0CDA4FF02D0387F8A5
:1044D0005730BB68C3F10003BB603B6803F1FF3397
:1044E0003B601AE0FB6E03F00403002B08D04FF092
:1044F0002B0387F857303B6803F1FF333B600CE038
:10450000FB6E03F00803002B07D04FF0200387F861
:1045100057303B6803F1FF333B60FB6E03F0200331
:10452000002B0ED07B68102B04D13B68A3F1020353
:104530003B6006E07B68082B03D13B6803F1FF3347
:104540003B604FF00003FB65BB68002B27D1FB6D80
:1045500007F1600003444FF0300203F84C2CFB6D70
:1045600003F10103FB651DE0F96DBB687A68B3FBDD
:10457000F2F002FB00F2C2EB0302BB6D13441A78A7
:1045800007F1600000EB010303F84C2CFB6D03F115
:104590000103FB65BA687B68B2FBF3F3BB60BB68E1
:1045A000002BE1D1FA6DBB6E9A4201DDFB6DBB665B
:1045B0003A68BB6EC3EB02033B60FB6E03F0110372
:1045C000002B14D107E0FB684FF020021A70FB6843
:1045D00003F10103FB603B68002BD4BF00230123E0
:1045E000DBB23A6802F1FF323A60002BEBD197F868
:1045F0005730002B07D0FB6897F857201A70FB68DC
:1046000003F10103FB60FB6E03F02003002B24D0B9
:104610007B68082B08D1FB684FF030021A70FB68EA
:1046200003F10103FB6018E07B68102B15D1FB68D8
:104630004FF030021A70FB6803F10103FB6040F297
:10464000D403C1F200031B6803F121031A78FB684D
:104650001A70FB6803F10103FB60FB6E03F01003AB
:10466000002B1ED107E0FB6897F856201A70FB68F4
:1046700003F10103FB603B68002BD4BF002301233F
:10468000DBB23A6802F1FF323A60002BEBD109E06D
:10469000FB684FF030021A70FB6803F10103FB6006
:1046A00000E000BFBA6EFB6D9A42D4BF0023012325
:1046B000DBB2BA6E02F1FF32BA66002BE8D10BE032
:1046C000FB6D07F16002134413F84C2CFB681A7061
:1046D000FB6803F10103FB60FB6D002BD4BF0023DB
:1046E0000123DBB2FA6D02F1FF32FA65002BE7D14C
:1046F00007E0FB684FF020021A70FB6803F101032A
:10470000FB603B68002BD4BF00230123DBB23A6877
:1047100002F1FF323A60002BEBD1FB68184607F13B
:104720006407BD4680BC704780B48FB000AFF860AE
:10473000B9607A603B6040F2D403C1F200031B68A9
:10474000FB623B6C03F04003002B05D040F2D80322
:10475000C1F200031B68FB624FF000037B634FF064
:1047600000033B633AE03B6B002B0BD07B6B07F104
:1047700038010B444FF03A0203F8242C7B6B03F111
:1047800001037B637B6B396BBA680A4412784FEA8A
:104790001212D2B21146FA6A0A44127807F13801AD
:1047A0000B4403F8242C7B6B03F101037B637B6BCD
:1047B000396BBA680A44127802F00F01FA6A0A44A7
:1047C000127807F138010B4403F8242C7B6B03F1BA
:1047D00001037B633B6B03F101033B633B6B052BE5
:1047E000C1DD3B6C03F01003002B15D107E0FB6823
:1047F0004FF020021A70FB6803F10103FB607A6836
:104800007B6B9A42D4BF00230123DBB27A6802F1AA
:10481000FF327A60002BEAD14FF000033B630FE0D8
:104820003B6B07F13802134413F8242CFB681A7011
:10483000FB6803F10103FB603B6B03F101033B6386
:104840003A6B7B6B9A42EBDB07E0FB684FF0200290
:104850001A70FB6803F10103FB607A687B6B9A4274
:10486000D4BF00230123DBB27A6802F1FF327A6001
:10487000002BEAD1FB68184607F13C07BD4680BC17
:10488000704700BF80B48FB000AFF860B9607A6045
:104890003B604FF000037B634FF00003FB62E3E0FB
:1048A000FB6A002B0BD07B6B07F1380003444FF001
:1048B0002E0203F8242C7B6B03F101037B63FA6A5D
:1048C000BB6813441B783B633B6B002B11D1796BA6
:1048D00040F2D403C1F200031B681A7807F1380CC8
:1048E0000CEB010303F8242C7B6B03F101037B63C6
:1048F000B6E03B6B632B68DD796B40F2D403C1F209
:10490000000318683A6B48F21F53C5F2EB1383FBA0
:1049100002C34FEA631C4FEAE273C3EB0C03034488
:104920001A7807F1380000EB010303F8242C7B6BA5
:1049300003F101037B633B6B48F21F52C5F2EB129C
:1049400082FB03124FEA62114FEAE372C2EB0102EB
:104950004FF0640101FB02F2C2EB03033B63796B8E
:1049600040F2D403C1F2000318683A6B46F2676361
:10497000C6F2666383FB02C34FEAA30C4FEAE273FD
:10498000C3EB0C0303441A7807F1380000EB010372
:1049900003F8242C7B6B03F101037B633A6B46F233
:1049A0006763C6F2666383FB02134FEAA3014FEA13
:1049B000E273C3EB01010B464FEA83030B444FEA5A
:1049C0004303C3EB02033B6337E03B6B092B34DD4E
:1049D000796B40F2D403C1F2000318683A6B46F2D7
:1049E0006763C6F2666383FB02C34FEAA30C4FEA18
:1049F000E273C3EB0C0303441A7807F1380000EBB1
:104A0000010303F8242C7B6B03F101037B633A6BF6
:104A100046F26763C6F2666383FB02134FEAA301A3
:104A20004FEAE273C3EB01010B464FEA83030B44E9
:104A30004FEA4303C3EB02033B63796B40F2D403B9
:104A4000C1F200031A683B6B13441A7807F1380C63
:104A50000CEB010303F8242C7B6B03F101037B6354
:104A6000FB6A03F10103FB62FB6A032B7FF718AFBC
:104A70003B6C03F01003002B15D107E0FB684FF0EF
:104A800020021A70FB6803F10103FB607A687B6BFC
:104A90009A42D4BF00230123DBB27A6802F1FF32CD
:104AA0007A60002BEAD14FF00003FB620FE0FB6A53
:104AB00007F13800034413F8242CFB681A70FB68D4
:104AC00003F10103FB60FB6A03F10103FB62FA6A75
:104AD0007B6B9A42EBDB07E0FB684FF020021A7019
:104AE000FB6803F10103FB607A687B6B9A42D4BFD9
:104AF00000230123DBB27A6802F1FF327A60002BD7
:104B0000EAD1FB68184607F13C07BD4680BC7047F8
:104B100080B487B000AFF860B9607A607B68BA682B
:104B200013447B610BE0BB681A78FB681A70FB6862
:104B300003F10103FB60BB6803F10103BB60BA68CA
:104B40007B699A42EFD107F11C07BD4680BC7047D4
:104B500080B5A2B002AFC7E902017A60FB704FF0E6
:104B600000037B674FF00003BB67FB78472B02D045
:104B7000FB78452B06D14FF00103BB67FB7803F1AF
:104B80002003FB70FB78672B35D107F1680307F131
:104B90006402009207F114020192D7E90201D7F8EA
:104BA00088204AF6912CC0F2010CE04703467B674F
:104BB000BB6E03F1FF33FB67FB6F13F1040F06DBE2
:104BC000D7F8883003F1FF32FB6F9A4209DA4FF0D1
:104BD0006503FB70D7F8883003F1FF33C7F88830DE
:104BE00009E04FF06603FB70BB6ED7F88820C3EB7B
:104BF0000203C7F88830FB78652B40F0FE80D7F8B9
:104C0000883003F1010207F1680307F164010091A4
:104C100007F114010191D7E902014AF6912CC0F283
:104C2000010CE04703467B677B6E002B07D07B6857
:104C30004FF02D021A707B6803F101037B607B6FDC
:104C40001A787B681A707B6803F101037B60D7F8E0
:104C50008830002B07DD7B684FF02E021A707B68CE
:104C600003F101037B607B6F03F101037868194650
:104C7000D7F8882044F61133C0F201039847D7F8DB
:104C800088307A6813447B60BB6F002B02D04FF0F2
:104C9000450301E04FF065037A6813707B6803F108
:104CA00001037B60BB6E002B15D14FF21D0CC0F2CF
:104CB000010CD7E902014FF000024FF00003E0477A
:104CC0000346002B03D04FF00003FB6607E04FF0D4
:104CD000FF33FB6603E0BB6E03F1FF33FB66FB6E45
:104CE000002B0CDA7B684FF02D021A707B6803F101
:104CF00001037B60FB6EC3F10003FB6607E07B688A
:104D00004FF02B021A707B6803F101037B607B6814
:104D100003F10200F96E46F26763C6F2666383FB35
:104D200001234FEAA3024FEAE173C3EB02021346E9
:104D30004FEA830313444FEA4303C3EB0102D3B2A8
:104D400003F13003DBB20370FA6E46F26763C6F21A
:104D5000666383FB02134FEAA3014FEAE273C3EBDE
:104D60000103FB667B6803F10100F96E46F267639D
:104D7000C6F2666383FB01234FEAA3024FEAE173A5
:104D8000C3EB020213464FEA830313444FEA430383
:104D9000C3EB0102D3B203F13003DBB20370FA6E4E
:104DA00046F26763C6F2666383FB02134FEAA30110
:104DB0004FEAE273C3EB0103FB66F96E46F26763E9
:104DC000C6F2666383FB01234FEAA3024FEAE17355
:104DD000C3EB020213464FEA830313444FEA430333
:104DE000C3EB0102D3B203F13003DAB27B681A706D
:104DF0007B6803F103037B60B3E0FB78662B40F034
:104E0000B08007F1680307F16402009207F1140211
:104E10000192D7E90201D7F888204AF6453CC0F252
:104E2000010CE04703467B677B6E002B07D07B6855
:104E30004FF02D021A707B6803F101037B607B6FDA
:104E40001B78002B64D0BB6E002B37DC7B684FF0E7
:104E500030021A707B6803F101037B607B684FF0BE
:104E60002E021A707B6803F101037B604FF0000390
:104E70003B670BE07B684FF030021A707B6803F1F0
:104E800001037B603B6F03F101033B67BB6EC3F122
:104E900000023B6F9A42EDDC0BE07B6F1A787B6877
:104EA0001A707B6803F101037B607B6F03F10103E0
:104EB0007B677B6F1B78002BEFD152E04FF0000334
:104EC0003B6720E0BB6E3A6F9A4214BF0023012378
:104ED000DBB23A6F02F101023A67002B07D07B6820
:104EE0004FF02E021A707B6803F101037B607B6F29
:104EF0001A787B681A707B6803F101037B607B6F13
:104F000003F101037B677B6F1B78002BDAD128E06C
:104F10007B684FF030021A707B6803F101037B60FD
:104F2000D7F88830002B1CDD7B684FF02E021A70FA
:104F30007B6803F101037B604FF000033B670BE0EC
:104F40007B684FF030021A707B6803F101037B60CD
:104F50003B6F03F101033B673A6FD7F888309A4201
:104F6000EEDB7B684FF000021A7007F18007BD4648
:104F700080BD00BF80B584B000AF78600FE07B6873
:104F80001B782E2B41D07B681B78652B0BD07B6860
:104F90001B78452B07D07B6803F101037B607B689E
:104FA0001B78002BEBD17B681B78002B20D0786816
:104FB0004FF4807144F2A133C0F2010398470346D5
:104FC000FB600DE0FB6803F101027B681344F968A4
:104FD0007A680A4412781A70FB6803F1FF33FB60A9
:104FE000FB68002BEEDC7B684FF02E021A700DE0A0
:104FF0007B684FF02E021A707B6803F101037B601F
:105000007B684FF000021A7000E000BF07F1100744
:10501000BD4680BD80B485B000AF786003E07B689A
:1050200003F101037B607B681B78002B03D07B6856
:105030001B782E2BF3D17B681B78002B0CBF002331
:105040000123DBB27A6802F101027A60002B34D0CE
:1050500003E07B6803F101037B607B681B78002B16
:1050600007D07B681B78652B03D07B681B78452BAA
:10507000EFD17B68FB607B6803F1FF337B6003E06B
:105080007B6803F1FF337B607B681B78302BF7D0A4
:105090007B681B782E2B0CD17B6803F1FF337B6080
:1050A00007E07B6803F101037B607B684FF000023F
:1050B0001A707A68FB689A42F3D107F11407BD466B
:1050C00080BC704790B59FB002AFF860C7E900237D
:1050D000D7F88C3003F01003002B05D0D7F88C30B4
:1050E00023F00103C7F88C30D7F88C3003F00103AC
:1050F000DBB2002B02D04FF0300301E04FF0200371
:1051000087F866304FF0000387F86730D7F88C30A7
:1051100003F00203002B48D04FF000031C464FF26F
:10512000310CC0F2010CD7E900014FF000024FF042
:105130000003E0470346002B02D04FF001031C465A
:10514000E3B2002B10D04FF02D0387F867303B6897
:105150003B607B6883F000437B60D7F8803003F1CD
:10516000FF33C7F8803020E0D7F88C3003F0040319
:10517000002B0AD04FF02B0387F86730D7F8803028
:1051800003F1FF33C7F880300FE0D7F88C3003F01D
:105190000803002B09D04FF0200387F86730D7F8B9
:1051A000803003F1FF33C7F88030D7F88430002B0C
:1051B00003DA4FF00603C7F8843007F1140297F8BA
:1051C0008830D7F884100091D7E9000144F6513CAB
:1051D000C0F2010CE047D7F88C3003F02003002B1D
:1051E0000BD0D7F88430002B07D107F114031846F1
:1051F00044F67573C0F20103984797F88830672B1F
:105200000DD1D7F88C3003F02003002B07D107F124
:105210001403184645F21503C0F20103984707F13D
:10522000140318464FF4807144F2A133C0F2010315
:1052300098470346BB66D7F88020BB6EC3EB0203DA
:10524000C7F88030D7F88C3003F01103002B17D14A
:1052500007E0FB684FF020021A70FB6803F10103BE
:10526000FB60D7F88030002BD4BF00230123DBB2D2
:10527000D7F8802002F1FF32C7F88020002BE8D158
:1052800097F86730002B07D0FB6897F867201A70F3
:10529000FB6803F10103FB60D7F88C3003F01003C7
:1052A000002B17D107E0FB6897F866201A70FB689F
:1052B00003F10103FB60D7F88030002BD4BF00233B
:1052C0000123DBB2D7F8802002F1FF32C7F880203B
:1052D000002BE8D14FF00003FB660FE0FB6E07F1F7
:1052E0007002134413F85C2CFB681A70FB6803F11E
:1052F0000103FB60FB6E03F10103FB66FA6EBB6EFC
:105300009A42EBDB07E0FB684FF020021A70FB6863
:1053100003F10103FB60D7F88030002BD4BF0023DA
:105320000123DBB2D7F8802002F1FF32C7F88020DA
:10533000002BE8D1FB68184607F17407BD4690BD05
:1053400080B592B004AFF860B9607A60FB683B62E8
:10535000ACE2BB681B78252B08D0BB681A783B6A87
:105360001A703B6A03F101033B629BE24FF00003BA
:10537000BB62BB6803F10103BB60BB681B78A3F190
:105380002003102B3DD801A252F823F0E553010071
:105390000354010003540100EF53010003540100C2
:1053A000035401000354010003540100035401009D
:1053B0000354010003540100DB53010003540100B6
:1053C000D15301000354010003540100F9530100BB
:1053D000BB6A43F01003BB62CBE7BB6A43F0040334
:1053E000BB62C6E7BB6A43F00803BB62C1E7BB6AA6
:1053F00043F02003BB62BCE7BB6A43F00103BB621E
:10540000B7E74FF0FF33FB62BB681B782F2B0ED939
:10541000BB681B78392B0AD807F10803184644F2F9
:10542000ED33C0F2010398470346FB6218E0BB6806
:105430001B782A2B14D1BB6803F10103BB607B6886
:1054400003F104027A601B68FB62FB6A002B07DA37
:10545000FB6AC3F10003FB62BB6A43F01003BB624B
:105460004FF0FF333B63BB681B782E2B2AD1BB6800
:1054700003F10103BB60BB681B782F2B0ED9BB68FF
:105480001B78392B0AD807F10803184644F2ED338C
:10549000C0F20103984703463B630DE0BB681B78ED
:1054A0002A2B09D1BB6803F10103BB607B6803F1C0
:1054B00004027A601B683B633B6B002B02DA4FF0FF
:1054C00000033B634FF0FF337B63BB681B786C2B9F
:1054D00003D0BB681B784C2B06D1BB681B787B6361
:1054E000BB6803F10103BB604FF00A03FB61BB68BB
:1054F0001B78A3F14103372B00F2898101A252F8F6
:1055000023F000BF4F5701000F5801000F58010052
:105510000F5801000F5801000F5801000F580100EB
:105520000F5801000F5801000F5801000F580100DB
:105530000F5801000F5801000F5801000F580100CB
:105540000F5801000F5801000F5801000F580100BB
:105550000F5801000F5801000F5801000F580100AB
:10556000B15701000F5801000F5801000F580100FA
:105570000F5801000F5801000F5801000F5801008B
:105580000F580100575701000F580100E555010061
:10559000C15701000F580100CB5701000F580100FF
:1055A0000F580100C15701000F5801000F580100AA
:1055B0000F5801000F5801000F580100A9570100B2
:1055C0000D5701000F5801000F5801004956010006
:1055D0000F5801004B5801000F5801000F580100EF
:1055E000B9570100BB6A03F01003002B0FD107E08D
:1055F0003B6A4FF020021A703B6A03F101033B62E1
:10560000FB6A03F1FF33FB62FB6A002BF0DC7B6873
:1056100003F104027A601B68DAB23B6A1A703B6AD3
:1056200003F101033B6207E03B6A4FF020021A706E
:105630003B6A03F101033B62FB6A03F1FF33FB6248
:10564000FB6A002BF0DC2DE17B6803F104027A6039
:105650001B687B627B6A002B04D14FF6A073C0F2FB
:1056600001037B623B6B786A194644F2A133C0F2B6
:105670000103984703463B61BB6A03F01003002B0C
:1056800015D107E03B6A4FF020021A703B6A03F124
:1056900001033B62FA6A3B699A42D4BF00230123AB
:1056A000DBB2FA6A02F1FF32FA62002BEAD14FF064
:1056B0000003BB610FE07B6A1A783B6A1A703B6A91
:1056C00003F101033B627B6A03F101037B62BB6967
:1056D00003F10103BB61BA693B699A42EBDB07E066
:1056E0003B6A4FF020021A703B6A03F101033B62F0
:1056F000FA6A3B699A42D4BF00230123DBB2FA6AFB
:1057000002F1FF32FA62002BEAD1CBE0FB6AB3F17F
:10571000FF3F06D14FF00803FB62BB6A43F0010371
:10572000BB627B6803F104027A601B683A6B0092EB
:10573000BA6A0192386A19464FF01002FB6A44F2C5
:10574000454CC0F2010CE04703463B62AAE0BB6A4D
:1057500043F04003BB627B6B6C2B12D17B6803F17F
:1057600004027A601B68BA6A0092386A1946FA6ABB
:105770003B6B44F2297CC0F2010CE04703463B62DC
:1057800090E07B6803F104027A601B68BA6A0092B9
:10579000386A1946FA6A3B6B44F6850CC0F2010C74
:1057A000E04703463B627DE04FF00803FB614DE0BC
:1057B000BB6A43F04003BB624FF01003FB6145E05E
:1057C000BB6A43F00203BB6240E07B6803F107035E
:1057D00023F0070303F108027A60D3E90023B968D4
:1057E0000878B96A41F00201D7F82CC0CDF800C0A2
:1057F000D7F830C0CDF804C002900391386A45F262
:10580000C501C0F20101884703463B624AE0BB681C
:105810001B78252B07D03B6A4FF025021A703B6A94
:1058200003F101033B62BB681B78002B08D0BB6807
:105830001A783B6A1A703B6A03F101033B6231E05C
:10584000BB6803F1FF33BB602CE000BF7B6B6C2BAC
:1058500006D17B6803F104027A601B687B6111E06A
:10586000BB6A03F00203002B06D07B6803F104023D
:105870007A601B687B6105E07B6803F104027A6053
:105880001B687B617B693A6B0092BA6A0192386A45
:105890001946FA69FB6A44F2454CC0F2010CE04734
:1058A00003463B62BB6803F10103BB60BB681B7826
:1058B000002B7FF44EAD3B6A4FF000021A703A6A3B
:1058C000FB68C3EB0203184607F13807BD4680BDED
:1058D00080B584B000AF0346FB71FB793B734FF09A
:1058E00000037B7307F10C034CF20000C4F20000CC
:1058F000194640F6A953C0F20103984707F1100773
:10590000BD4680BD0FB480B5ADF5986D00AF4FF0CA
:105910000003C7F8BC3407F5986202F10C0207F1E6
:105920001003A3F10C031A6007F1080207F110033A
:10593000A3F10C031046D7F8C8141A6845F2413396
:10594000C0F20103984707F10803C7F8B83414E020
:10595000D7F8B8341B78184645F6D103C0F20103D6
:105960009847D7F8BC3403F10103C7F8BC34D7F823
:10597000B83403F10103C7F8B834D7F8B8341B784A
:10598000002BE5D1D7F8BC34184607F59867BD461B
:10599000BDE8804004B0704798B500AF40F248734E
:1059A000C1F200034FF000021A6059E040F2487360
:1059B000C1F200031C6840F24873C1F200031B6887
:1059C000184645F60D53C0F20103984703461A46A0
:1059D00040F24C73C1F200031A5540F24873C1F211
:1059E00000031A6840F24C73C1F200039A5C40F263
:1059F0004873C1F20003196840F23473C1F2000326
:105A00005B5C9A4213D040F24873C1F200031A68FB
:105A100040F23873C1F2000353F8223003F1010160
:105A200040F23873C1F2000343F822100CE040F258
:105A30004873C1F200031A6840F23873C1F20003E0
:105A40004FF0000143F8221040F24873C1F2000306
:105A50001B6803F1010240F24873C1F200031A60AF
:105A600040F24873C1F200031B68032B9EDD40F235
:105A70004873C1F200034FF000021A60A8E040F240
:105A80004873C1F200031A6840F23473C1F2000394
:105A90009B5C012B47D140F24873C1F200031A68A6
:105AA00040F23873C1F2000353F8222040F24873E9
:105AB000C1F20003196841F65843C1F2000353F8DC
:105AC00021309A4277D940F24873C1F20003196835
:105AD00040F24873C1F200031A6840F24873C1F201
